{
  "_format": "hh-sol-artifact-1",
  "contractName": "Transfer",
  "sourceName": "contracts/Transfer.sol",
  "abi": [
    {
      "anonymous": false,
      "inputs": [
        {
          "indexed": true,
          "internalType": "address",
          "name": "from",
          "type": "address"
        },
        {
          "indexed": true,
          "internalType": "address",
          "name": "to",
          "type": "address"
        },
        {
          "indexed": false,
          "internalType": "uint256",
          "name": "value",
          "type": "uint256"
        }
      ],
      "name": "TransferEvent",
      "type": "event"
    },
    {
      "anonymous": false,
      "inputs": [
        {
          "indexed": true,
          "internalType": "address",
          "name": "from",
          "type": "address"
        }
      ],
      "name": "TransferEvent1",
      "type": "event"
    },
    {
      "inputs": [
        {
          "internalType": "address",
          "name": "",
          "type": "address"
        }
      ],
      "name": "balances",
      "outputs": [
        {
          "internalType": "uint256",
          "name": "",
          "type": "uint256"
        }
      ],
      "stateMutability": "view",
      "type": "function"
    },
    {
      "inputs": [],
      "name": "deposit",
      "outputs": [],
      "stateMutability": "payable",
      "type": "function"
    },
    {
      "inputs": [
        {
          "internalType": "address",
          "name": "_address",
          "type": "address"
        }
      ],
      "name": "getBalance",
      "outputs": [
        {
          "internalType": "uint256",
          "name": "",
          "type": "uint256"
        }
      ],
      "stateMutability": "view",
      "type": "function"
    },
    {
      "inputs": [],
      "name": "getContractBalance",
      "outputs": [
        {
          "internalType": "uint256",
          "name": "",
          "type": "uint256"
        }
      ],
      "stateMutability": "view",
      "type": "function"
    },
    {
      "inputs": [
        {
          "internalType": "address payable",
          "name": "_to",
          "type": "address"
        },
        {
          "internalType": "uint256",
          "name": "_amount",
          "type": "uint256"
        }
      ],
      "name": "transfer",
      "outputs": [],
      "stateMutability": "nonpayable",
      "type": "function"
    },
    {
      "inputs": [
        {
          "internalType": "uint256",
          "name": "_amount",
          "type": "uint256"
        }
      ],
      "name": "withdraw",
      "outputs": [],
      "stateMutability": "nonpayable",
      "type": "function"
    }
  ],
  "bytecode": "0x608060405234801561001057600080fd5b50610a6a806100206000396000f3fe6080604052600436106100555760003560e01c806327e235e31461005a5780632e1a7d4d146100975780636f9fb98a146100c0578063a9059cbb146100eb578063d0e30db014610114578063f8b2cb4f1461011e575b600080fd5b34801561006657600080fd5b50610081600480360381019061007c91906106ca565b61015b565b60405161008e9190610710565b60405180910390f35b3480156100a357600080fd5b506100be60048036038101906100b99190610757565b610173565b005b3480156100cc57600080fd5b506100d56102f9565b6040516100e29190610710565b60405180910390f35b3480156100f757600080fd5b50610112600480360381019061010d91906107c2565b610301565b005b61011c610585565b005b34801561012a57600080fd5b50610145600480360381019061014091906106ca565b61061f565b6040516101529190610710565b60405180910390f35b60006020528060005260406000206000915090505481565b806000803373ffffffffffffffffffffffffffffffffffffffff1673ffffffffffffffffffffffffffffffffffffffff1681526020019081526020016000205410156101f4576040517f08c379a00000000000000000000000000000000000000000000000000000000081526004016101eb9061085f565b60405180910390fd5b806000803373ffffffffffffffffffffffffffffffffffffffff1673ffffffffffffffffffffffffffffffffffffffff168152602001908152602001600020600082825461024291906108ae565b9250508190555060003373ffffffffffffffffffffffffffffffffffffffff168260405161026f90610913565b60006040518083038185875af1925050503d80600081146102ac576040519150601f19603f3d011682016040523d82523d6000602084013e6102b1565b606091505b50509050806102f5576040517f08c379a00000000000000000000000000000000000000000000000000000000081526004016102ec90610974565b60405180910390fd5b5050565b600047905090565b3373ffffffffffffffffffffffffffffffffffffffff167f39259668730ccfcf5dc1d1f470c6dad87f57b8e90e7c6d7f7213c4d6b0ae244e60405160405180910390a2806000803373ffffffffffffffffffffffffffffffffffffffff1673ffffffffffffffffffffffffffffffffffffffff1681526020019081526020016000205410156103c5576040517f08c379a00000000000000000000000000000000000000000000000000000000081526004016103bc9061085f565b60405180910390fd5b806000803373ffffffffffffffffffffffffffffffffffffffff1673ffffffffffffffffffffffffffffffffffffffff168152602001908152602001600020600082825461041391906108ae565b92505081905550806000808473ffffffffffffffffffffffffffffffffffffffff1673ffffffffffffffffffffffffffffffffffffffff16815260200190815260200160002060008282546104689190610994565b9250508190555060008273ffffffffffffffffffffffffffffffffffffffff168260405161049590610913565b60006040518083038185875af1925050503d80600081146104d2576040519150601f19603f3d011682016040523d82523d6000602084013e6104d7565b606091505b505090508061051b576040517f08c379a000000000000000000000000000000000000000000000000000000000815260040161051290610a14565b60405180910390fd5b8273ffffffffffffffffffffffffffffffffffffffff163373ffffffffffffffffffffffffffffffffffffffff167feaf1c4b3ce0f4f62a2bae7eb3e68225c75f7e6ff4422073b7437b9a78d25f170846040516105789190610710565b60405180910390a3505050565b3373ffffffffffffffffffffffffffffffffffffffff167f39259668730ccfcf5dc1d1f470c6dad87f57b8e90e7c6d7f7213c4d6b0ae244e60405160405180910390a2346000803373ffffffffffffffffffffffffffffffffffffffff1673ffffffffffffffffffffffffffffffffffffffff16815260200190815260200160002060008282546106169190610994565b92505081905550565b60008060008373ffffffffffffffffffffffffffffffffffffffff1673ffffffffffffffffffffffffffffffffffffffff168152602001908152602001600020549050919050565b600080fd5b600073ffffffffffffffffffffffffffffffffffffffff82169050919050565b60006106978261066c565b9050919050565b6106a78161068c565b81146106b257600080fd5b50565b6000813590506106c48161069e565b92915050565b6000602082840312156106e0576106df610667565b5b60006106ee848285016106b5565b91505092915050565b6000819050919050565b61070a816106f7565b82525050565b60006020820190506107256000830184610701565b92915050565b610734816106f7565b811461073f57600080fd5b50565b6000813590506107518161072b565b92915050565b60006020828403121561076d5761076c610667565b5b600061077b84828501610742565b91505092915050565b600061078f8261066c565b9050919050565b61079f81610784565b81146107aa57600080fd5b50565b6000813590506107bc81610796565b92915050565b600080604083850312156107d9576107d8610667565b5b60006107e7858286016107ad565b92505060206107f885828601610742565b9150509250929050565b600082825260208201905092915050565b7f496e73756666696369656e742062616c616e6365000000000000000000000000600082015250565b6000610849601483610802565b915061085482610813565b602082019050919050565b600060208201905081810360008301526108788161083c565b9050919050565b7f4e487b7100000000000000000000000000000000000000000000000000000000600052601160045260246000fd5b60006108b9826106f7565b91506108c4836106f7565b92508282039050818111156108dc576108db61087f565b5b92915050565b600081905092915050565b50565b60006108fd6000836108e2565b9150610908826108ed565b600082019050919050565b600061091e826108f0565b9150819050919050565b7f5769746864726177616c206661696c6564000000000000000000000000000000600082015250565b600061095e601183610802565b915061096982610928565b602082019050919050565b6000602082019050818103600083015261098d81610951565b9050919050565b600061099f826106f7565b91506109aa836106f7565b92508282019050808211156109c2576109c161087f565b5b92915050565b7f5472616e73666572206661696c65640000000000000000000000000000000000600082015250565b60006109fe600f83610802565b9150610a09826109c8565b602082019050919050565b60006020820190508181036000830152610a2d816109f1565b905091905056fea26469706673582212206caa37245e4428b9811bc36ac8d25dad91f9cd75b58c41ab5745b5bc25382fb964736f6c63430008180033",
  "linkReferences": {},
  "deployedLinkReferences": {}
}